{
  "contractName": "TestToken",
  "abi": [
    {
      "constant": true,
      "inputs": [],
      "name": "totalSupply",
      "outputs": [
        {
          "name": "",
          "type": "uint256"
        }
      ],
      "payable": false,
      "stateMutability": "view",
      "type": "function"
    },
    {
      "constant": true,
      "inputs": [
        {
          "name": "",
          "type": "address"
        }
      ],
      "name": "balanceOf",
      "outputs": [
        {
          "name": "",
          "type": "uint256"
        }
      ],
      "payable": false,
      "stateMutability": "view",
      "type": "function"
    },
    {
      "inputs": [
        {
          "name": "_initialSupply",
          "type": "uint256"
        }
      ],
      "payable": false,
      "stateMutability": "nonpayable",
      "type": "constructor"
    }
  ],
  "bytecode": "0x608060405234801561001057600080fd5b506040516020806101bd8339810180604052602081101561003057600080fd5b810190808051906020019092919050505080600160003373ffffffffffffffffffffffffffffffffffffffff1673ffffffffffffffffffffffffffffffffffffffff1681526020019081526020016000208190555080600081905550506101218061009c6000396000f3fe6080604052600436106049576000357c0100000000000000000000000000000000000000000000000000000000900463ffffffff16806318160ddd14604e57806370a08231146076575b600080fd5b348015605957600080fd5b50606060d7565b6040518082815260200191505060405180910390f35b348015608157600080fd5b5060c160048036036020811015609657600080fd5b81019080803573ffffffffffffffffffffffffffffffffffffffff16906020019092919050505060dd565b6040518082815260200191505060405180910390f35b60005481565b6001602052806000526040600020600091509050548156fea165627a7a723058209da6ad1abd4cdb7ce9c3ed60f812c7df3dd15c3072a4602bf5a6f30cd29afe7f0029",
  "source": "pragma solidity >=0.4.21 <0.6.0;\n\ncontract TestToken {\n\tuint256 public totalSupply;\n\n\tmapping(address => uint256) public balanceOf;\n\n\tconstructor(uint256 _initialSupply) public {\n\t\tbalanceOf[msg.sender] = _initialSupply;\n\t\ttotalSupply = _initialSupply;\n\t}\n}\n",
  "sourcePath": "/home/webo/Dokumentumok/ERC-20/TestToken/contracts/TestToken.sol",
  "compiler": {
    "name": "solc",
    "version": "0.5.0+commit.1d4f565a.Emscripten.clang"
  },
  "schemaVersion": "3.0.6",
  "updatedAt": "2019-04-01T16:31:53.682Z",
  "devdoc": {
    "methods": {}
  },
  "userdoc": {
    "methods": {}
  }
}