{
  "contractName": "TestToken",
  "abi": [
    {
      "constant": true,
      "inputs": [],
      "name": "totalSupply",
      "outputs": [
        {
          "name": "",
          "type": "uint256"
        }
      ],
      "payable": false,
      "stateMutability": "view",
      "type": "function",
      "signature": "0x18160ddd"
    },
    {
      "inputs": [],
      "payable": false,
      "stateMutability": "nonpayable",
      "type": "constructor",
      "signature": "constructor"
    }
  ],
  "bytecode": "0x608060405234801561001057600080fd5b506305f5e100600081905550609e8061002a6000396000f3fe608060405260043610603f576000357c0100000000000000000000000000000000000000000000000000000000900463ffffffff16806318160ddd146044575b600080fd5b348015604f57600080fd5b506056606c565b6040518082815260200191505060405180910390f35b6000548156fea165627a7a723058208354ee7e07d826092abb76f0edc0c312ee9523b60ca164ced09ef819399c4b6f0029",
  "source": "pragma solidity >=0.4.21 <0.6.0;\n\ncontract TestToken {\n\t// Constructor\n\t// Set the total nuber of tokens\n\t// Red the total number of tokens\n\tuint256 public totalSupply;\n\n\tconstructor() public {\n\t\ttotalSupply = 100000000;\n\t}\n}",
  "sourcePath": "/home/webo/Dokumentumok/ERC-20/TestToken_Sale/contracts/TestToken.sol",
  "compiler": {
    "name": "solc",
    "version": "0.5.0+commit.1d4f565a.Emscripten.clang"
  },
  "schemaVersion": "3.0.6",
  "updatedAt": "2019-03-28T20:51:41.174Z",
  "devdoc": {
    "methods": {}
  },
  "userdoc": {
    "methods": {}
  }
}